{
  "contractName": "BidingContractFactory",
  "abi": [
    {
      "inputs": [
        {
          "internalType": "uint256",
          "name": "price",
          "type": "uint256"
        }
      ],
      "payable": false,
      "stateMutability": "nonpayable",
      "type": "constructor"
    },
    {
      "constant": true,
      "inputs": [],
      "name": "amtFactory",
      "outputs": [
        {
          "internalType": "uint256",
          "name": "",
          "type": "uint256"
        }
      ],
      "payable": false,
      "stateMutability": "view",
      "type": "function"
    },
    {
      "constant": true,
      "inputs": [
        {
          "internalType": "uint256",
          "name": "",
          "type": "uint256"
        }
      ],
      "name": "children",
      "outputs": [
        {
          "internalType": "contract BidingContract",
          "name": "",
          "type": "address"
        }
      ],
      "payable": false,
      "stateMutability": "view",
      "type": "function"
    },
    {
      "constant": true,
      "inputs": [],
      "name": "initialPrice",
      "outputs": [
        {
          "internalType": "uint256",
          "name": "",
          "type": "uint256"
        }
      ],
      "payable": false,
      "stateMutability": "view",
      "type": "function"
    },
    {
      "constant": false,
      "inputs": [
        {
          "internalType": "string",
          "name": "_descriptionItem",
          "type": "string"
        },
        {
          "internalType": "uint256",
          "name": "_duration",
          "type": "uint256"
        },
        {
          "internalType": "uint256",
          "name": "_startingBid",
          "type": "uint256"
        }
      ],
      "name": "addChild",
      "outputs": [],
      "payable": true,
      "stateMutability": "payable",
      "type": "function"
    },
    {
      "constant": true,
      "inputs": [
        {
          "internalType": "uint8",
          "name": "childIndex",
          "type": "uint8"
        }
      ],
      "name": "getChildContractAddress",
      "outputs": [
        {
          "internalType": "address",
          "name": "",
          "type": "address"
        }
      ],
      "payable": false,
      "stateMutability": "view",
      "type": "function"
    },
    {
      "constant": true,
      "inputs": [],
      "name": "getBalanceContract",
      "outputs": [
        {
          "internalType": "uint256",
          "name": "",
          "type": "uint256"
        }
      ],
      "payable": false,
      "stateMutability": "view",
      "type": "function"
    }
  ],
  "bytecode": "0x608060405234801561001057600080fd5b50604051611a6f380380611a6f8339818101604052602081101561003357600080fd5b81019080805190602001909291905050508060018190555033600260006101000a81548173ffffffffffffffffffffffffffffffffffffffff021916908373ffffffffffffffffffffffffffffffffffffffff160217905550506119d38061009c6000396000f3fe6080604052600436106100555760003560e01c80631d0806ae1461005a5780635a0089d314610085578063667944a31461010357806366bd78fd146101d25780637002ce42146101fd578063eda229b914610278575b600080fd5b34801561006657600080fd5b5061006f6102a3565b6040518082815260200191505060405180910390f35b34801561009157600080fd5b506100c1600480360360208110156100a857600080fd5b81019080803560ff1690602001909291905050506102a9565b604051808273ffffffffffffffffffffffffffffffffffffffff1673ffffffffffffffffffffffffffffffffffffffff16815260200191505060405180910390f35b6101d06004803603606081101561011957600080fd5b810190808035906020019064010000000081111561013657600080fd5b82018360208201111561014857600080fd5b8035906020019184600183028401116401000000008311171561016a57600080fd5b91908080601f016020809104026020016040519081016040528093929190818152602001838380828437600081840152601f19601f82011690508083019250505050505050919291929080359060200190929190803590602001909291905050506102ec565b005b3480156101de57600080fd5b506101e7610507565b6040518082815260200191505060405180910390f35b34801561020957600080fd5b506102366004803603602081101561022057600080fd5b810190808035906020019092919050505061050f565b604051808273ffffffffffffffffffffffffffffffffffffffff1673ffffffffffffffffffffffffffffffffffffffff16815260200191505060405180910390f35b34801561028457600080fd5b5061028d61054b565b6040518082815260200191505060405180910390f35b60015481565b6000808260ff16815481106102ba57fe5b9060005260206000200160009054906101000a900473ffffffffffffffffffffffffffffffffffffffff169050919050565b600154341015610347576040517f08c379a00000000000000000000000000000000000000000000000000000000081526004018080602001828103825260298152602001806119766029913960400191505060405180910390fd5b34600360008282540192505081905550600083838360405161036890610551565b8080602001848152602001838152602001828103825285818151815260200191508051906020019080838360005b838110156103b1578082015181840152602081019050610396565b50505050905090810190601f1680156103de5780820380516001836020036101000a031916815260200191505b50945050505050604051809103906000f080158015610401573d6000803e3d6000fd5b5090508073ffffffffffffffffffffffffffffffffffffffff1663f2fde38b336040518263ffffffff1660e01b8152600401808273ffffffffffffffffffffffffffffffffffffffff1673ffffffffffffffffffffffffffffffffffffffff168152602001915050600060405180830381600087803b15801561048357600080fd5b505af1158015610497573d6000803e3d6000fd5b5050505060008190806001815401808255809150509060018203906000526020600020016000909192909190916101000a81548173ffffffffffffffffffffffffffffffffffffffff021916908373ffffffffffffffffffffffffffffffffffffffff1602179055505050505050565b600047905090565b6000818154811061051c57fe5b906000526020600020016000915054906101000a900473ffffffffffffffffffffffffffffffffffffffff1681565b60035481565b6114178061055f8339019056fe608060405260786005553480156200001657600080fd5b506040516200141738038062001417833981810160405260608110156200003c57600080fd5b81019080805160405193929190846401000000008211156200005d57600080fd5b838201915060208201858111156200007457600080fd5b82518660018202830111640100000000821117156200009257600080fd5b8083526020830192505050908051906020019080838360005b83811015620000c8578082015181840152602081019050620000ab565b50505050905090810190601f168015620000f65780820380516001836020036101000a031916815260200191505b506040526020018051906020019092919080519060200190929190505050336000806101000a81548173ffffffffffffffffffffffffffffffffffffffff021916908373ffffffffffffffffffffffffffffffffffffffff16021790555082600190805190602001906200016c929190620001b9565b508160028190555080600381905550806006819055508142016004819055506000600a60006101000a81548160ff02191690836001811115620001ab57fe5b021790555050505062000268565b828054600181600116156101000203166002900490600052602060002090601f016020900481019282601f10620001fc57805160ff19168380011785556200022d565b828001600101855582156200022d579182015b828111156200022c5782518255916020019190600101906200020f565b5b5090506200023c919062000240565b5090565b6200026591905b808211156200026157600081600090555060010162000247565b5090565b90565b61119f80620002786000396000f3fe6080604052600436106100dd5760003560e01c80637fb450991161007f5780639646893411610059578063964689341461030a578063b9fdd56914610314578063f2fde38b1461033f578063fd91835f14610383576100dd565b80637fb45099146102635780638da5cb5b1461029c5780639499e018146102f3576100dd565b8063389eb9f9116100bb578063389eb9f91461014f578063497ecfc51461017a57806366bd78fd146101a85780636bf56b38146101d3576100dd565b80630fb5a6b4146100e257806329dcb0cf1461010d5780632cf8d12714610138575b600080fd5b3480156100ee57600080fd5b506100f76103da565b6040518082815260200191505060405180910390f35b34801561011957600080fd5b506101226103e0565b6040518082815260200191505060405180910390f35b34801561014457600080fd5b5061014d6103e6565b005b34801561015b57600080fd5b506101646106d9565b6040518082815260200191505060405180910390f35b6101a66004803603602081101561019057600080fd5b81019080803590602001909291905050506106df565b005b3480156101b457600080fd5b506101bd610a3f565b6040518082815260200191505060405180910390f35b3480156101df57600080fd5b506101e8610a47565b6040518080602001828103825283818151815260200191508051906020019080838360005b8381101561022857808201518184015260208101905061020d565b50505050905090810190601f1680156102555780820380516001836020036101000a031916815260200191505b509250505060405180910390f35b34801561026f57600080fd5b50610278610ae5565b6040518082600181111561028857fe5b60ff16815260200191505060405180910390f35b3480156102a857600080fd5b506102b1610af8565b604051808273ffffffffffffffffffffffffffffffffffffffff1673ffffffffffffffffffffffffffffffffffffffff16815260200191505060405180910390f35b3480156102ff57600080fd5b50610308610b1d565b005b610312610d4f565b005b34801561032057600080fd5b50610329610f87565b6040518082815260200191505060405180910390f35b6103816004803603602081101561035557600080fd5b81019080803573ffffffffffffffffffffffffffffffffffffffff169060200190929190505050610f8d565b005b34801561038f57600080fd5b50610398611092565b604051808273ffffffffffffffffffffffffffffffffffffffff1673ffffffffffffffffffffffffffffffffffffffff16815260200191505060405180910390f35b60025481565b60045481565b6000809054906101000a900473ffffffffffffffffffffffffffffffffffffffff1673ffffffffffffffffffffffffffffffffffffffff163373ffffffffffffffffffffffffffffffffffffffff16146104a8576040517f08c379a000000000000000000000000000000000000000000000000000000000815260040180806020018281038252601a8152602001807f6f6e6c7920746865206f776e65722063616e20646f206974202100000000000081525060200191505060405180910390fd5b600060018111156104b557fe5b600a60009054906101000a900460ff1660018111156104d057fe5b14610543576040517f08c379a000000000000000000000000000000000000000000000000000000000815260040180806020018281038252601d8152602001807f61756374696f6e5374617465206973206e6f742072756e6e696e67202100000081525060200191505060405180910390fd5b60045442101561059e576040517f08c379a00000000000000000000000000000000000000000000000000000000081526004018080602001828103825260248152602001806110ec6024913960400191505060405180910390fd5b3373ffffffffffffffffffffffffffffffffffffffff166108fc60096000600760009054906101000a900473ffffffffffffffffffffffffffffffffffffffff1673ffffffffffffffffffffffffffffffffffffffff1673ffffffffffffffffffffffffffffffffffffffff168152602001908152602001600020600101549081150290604051600060405180830381858888f19350505050158015610648573d6000803e3d6000fd5b50600060096000600760009054906101000a900473ffffffffffffffffffffffffffffffffffffffff1673ffffffffffffffffffffffffffffffffffffffff1673ffffffffffffffffffffffffffffffffffffffff168152602001908152602001600020600101819055506001600a60006101000a81548160ff021916908360018111156106d257fe5b0217905550565b60055481565b6004544210610756576040517f08c379a00000000000000000000000000000000000000000000000000000000081526004018080602001828103825260208152602001807f626c6f636b2e74696d657374616d70206973203e3d20646561646c696e65202181525060200191505060405180910390fd5b61075e6110b8565b34111561098f573460068190555033600760006101000a81548173ffffffffffffffffffffffffffffffffffffffff021916908373ffffffffffffffffffffffffffffffffffffffff160217905550806008819055506000600960003373ffffffffffffffffffffffffffffffffffffffff1673ffffffffffffffffffffffffffffffffffffffff168152602001908152602001600020600101541115610889573373ffffffffffffffffffffffffffffffffffffffff166108fc600960003373ffffffffffffffffffffffffffffffffffffffff1673ffffffffffffffffffffffffffffffffffffffff168152602001908152602001600020600101549081150290604051600060405180830381858888f19350505050158015610887573d6000803e3d6000fd5b505b34600960003373ffffffffffffffffffffffffffffffffffffffff1673ffffffffffffffffffffffffffffffffffffffff1681526020019081526020016000206001018190555080600960003373ffffffffffffffffffffffffffffffffffffffff1673ffffffffffffffffffffffffffffffffffffffff168152602001908152602001600020600001819055507f24d328ae9657570bc1fa01d56e08201f59ee3c2d500e7151b7ee7400826008a5338234604051808473ffffffffffffffffffffffffffffffffffffffff1673ffffffffffffffffffffffffffffffffffffffff168152602001838152602001828152602001935050505060405180910390a1610a3c565b7fdf7c677983a111e6c7fb07c3d90d76eed8dcff401c55d29c591333029bff296c8134604051808381526020018281526020019250505060405180910390a16040517f08c379a00000000000000000000000000000000000000000000000000000000081526004018080602001828103825260178152602001807f796f75206469646e27742062696420656e6f756768202100000000000000000081525060200191505060405180910390fd5b50565b600047905090565b60018054600181600116156101000203166002900480601f016020809104026020016040519081016040528092919081815260200182805460018160011615610100020316600290048015610add5780601f10610ab257610100808354040283529160200191610add565b820191906000526020600020905b815481529060010190602001808311610ac057829003601f168201915b505050505081565b600a60009054906101000a900460ff1681565b6000809054906101000a900473ffffffffffffffffffffffffffffffffffffffff1681565b6000809054906101000a900473ffffffffffffffffffffffffffffffffffffffff1673ffffffffffffffffffffffffffffffffffffffff163373ffffffffffffffffffffffffffffffffffffffff1614610bdf576040517f08c379a000000000000000000000000000000000000000000000000000000000815260040180806020018281038252601a8152602001807f6f6e6c7920746865206f776e65722063616e20646f206974202100000000000081525060200191505060405180910390fd5b600454421015610c3a576040517f08c379a00000000000000000000000000000000000000000000000000000000081526004018080602001828103825260248152602001806110ec6024913960400191505060405180910390fd5b600180811115610c4657fe5b600a60009054906101000a900460ff166001811115610c6157fe5b14610cb7576040517f08c379a00000000000000000000000000000000000000000000000000000000081526004018080602001828103825260298152602001806111106029913960400191505060405180910390fd5b600554600454014211610d15576040517f08c379a00000000000000000000000000000000000000000000000000000000081526004018080602001828103825260328152602001806111396032913960400191505060405180910390fd5b6000809054906101000a900473ffffffffffffffffffffffffffffffffffffffff1673ffffffffffffffffffffffffffffffffffffffff16ff5b600760009054906101000a900473ffffffffffffffffffffffffffffffffffffffff1673ffffffffffffffffffffffffffffffffffffffff163373ffffffffffffffffffffffffffffffffffffffff161415610df6576040517f08c379a00000000000000000000000000000000000000000000000000000000081526004018080602001828103825260298152602001806110c36029913960400191505060405180910390fd5b6000600960003373ffffffffffffffffffffffffffffffffffffffff1673ffffffffffffffffffffffffffffffffffffffff1681526020019081526020016000206001015411610eae576040517f08c379a00000000000000000000000000000000000000000000000000000000081526004018080602001828103825260178152602001807f796f7520646f6e74206861766520616d7420626964202100000000000000000081525060200191505060405180910390fd5b60003390508073ffffffffffffffffffffffffffffffffffffffff166108fc600960008473ffffffffffffffffffffffffffffffffffffffff1673ffffffffffffffffffffffffffffffffffffffff168152602001908152602001600020600101549081150290604051600060405180830381858888f19350505050158015610f3b573d6000803e3d6000fd5b506000600960008373ffffffffffffffffffffffffffffffffffffffff1673ffffffffffffffffffffffffffffffffffffffff1681526020019081526020016000206001018190555050565b60035481565b6000809054906101000a900473ffffffffffffffffffffffffffffffffffffffff1673ffffffffffffffffffffffffffffffffffffffff163373ffffffffffffffffffffffffffffffffffffffff161461104f576040517f08c379a000000000000000000000000000000000000000000000000000000000815260040180806020018281038252601a8152602001807f6f6e6c7920746865206f776e65722063616e20646f206974202100000000000081525060200191505060405180910390fd5b806000806101000a81548173ffffffffffffffffffffffffffffffffffffffff021916908373ffffffffffffffffffffffffffffffffffffffff16021790555050565b600760009054906101000a900473ffffffffffffffffffffffffffffffffffffffff1681565b600060065490509056fe74686520686967686573744269646465722063616e6e6f7420636c61696d426964416d6f756e742021626c6f636b2e74696d657374616d70206973204e4f54203e3d20646561646c696e65202161756374696f6e5374617465206973206e6f7420656e64656420212063616c6c20426964456e64282974696d657374616d7020686173206e6f7420706173742074686520646561646c696e652b7769746864726177616c54696d65a265627a7a72315820af14418d7968dcbaebe28adefcdaba19118fa2bd9aab6cde07ff5da80da629a664736f6c63430005100032796f75206861766520746f20706179206d6f726520746f2063726561746520616e2061756374696f6ea265627a7a723158200e41da3408d45b550f2a6ab6312e44f44d23be1a35c3585bec306ff5bddaf26c64736f6c63430005100032",
  "source": "pragma solidity ^0.5.16;\n\nimport \"./BidingContract.sol\";\n\ncontract BidingContractFactory {\n    BidingContract[] public children;\n    uint    public   initialPrice;\n    address owner;\n    uint public amtFactory;\n\n    \n    constructor(uint  price) public {\n        initialPrice = price;\n        owner = msg.sender;\n    }\n\n    modifier onlyOwner() {\n        require(msg.sender == owner, \"only the owner can do it! \");\n        _;\n    }\n\n    function addChild(string memory _descriptionItem, uint _duration, uint _startingBid) public payable {\n        require(msg.value >= initialPrice, \"you have to pay more to create an auction\");\n        amtFactory += msg.value;\n        BidingContract child = new BidingContract(_descriptionItem, _duration, _startingBid);\n        child.transferOwnership(msg.sender);\n        children.push(child);\n    }\n\n    function  getChildContractAddress(uint8 childIndex) public view returns (address){\n        return address(children[childIndex]);\n    }\n    \n    function getBalanceContract() public view returns(uint){ // balance in wei\n        return address(this).balance;\n    }\n}",
  "sourcePath": "/Users/olivier/Documents/code/olivier7delf/Blockchain-Course-Patterns/contracts/BidingContractFactory.sol",
  "compiler": {
    "name": "solc",
    "version": "0.5.16+commit.9c3226ce.Emscripten.clang"
  },
  "schemaVersion": "3.4.3",
  "updatedAt": "2021-11-05T22:20:51.132Z",
  "networkType": "ethereum",
  "devdoc": {
    "methods": {}
  },
  "userdoc": {
    "methods": {}
  }
}