{
  "contractName": "BidingContract",
  "abi": [
    {
      "inputs": [
        {
          "internalType": "string",
          "name": "_descriptionItem",
          "type": "string"
        },
        {
          "internalType": "uint256",
          "name": "_duration",
          "type": "uint256"
        },
        {
          "internalType": "uint256",
          "name": "_startingBid",
          "type": "uint256"
        }
      ],
      "payable": false,
      "stateMutability": "nonpayable",
      "type": "constructor"
    },
    {
      "anonymous": false,
      "inputs": [
        {
          "indexed": false,
          "internalType": "bytes32",
          "name": "_nameBidder",
          "type": "bytes32"
        },
        {
          "indexed": false,
          "internalType": "uint256",
          "name": "_amt",
          "type": "uint256"
        }
      ],
      "name": "BidFailed",
      "type": "event"
    },
    {
      "anonymous": false,
      "inputs": [
        {
          "indexed": false,
          "internalType": "address",
          "name": "_addr",
          "type": "address"
        },
        {
          "indexed": false,
          "internalType": "bytes32",
          "name": "_nm",
          "type": "bytes32"
        },
        {
          "indexed": false,
          "internalType": "uint256",
          "name": "_newHighBid",
          "type": "uint256"
        }
      ],
      "name": "HighBidChanged",
      "type": "event"
    },
    {
      "constant": true,
      "inputs": [],
      "name": "addrHighestBidder",
      "outputs": [
        {
          "internalType": "address",
          "name": "",
          "type": "address"
        }
      ],
      "payable": false,
      "stateMutability": "view",
      "type": "function"
    },
    {
      "constant": true,
      "inputs": [],
      "name": "auctionState",
      "outputs": [
        {
          "internalType": "enum BidingContract.State",
          "name": "",
          "type": "uint8"
        }
      ],
      "payable": false,
      "stateMutability": "view",
      "type": "function"
    },
    {
      "constant": true,
      "inputs": [],
      "name": "deadline",
      "outputs": [
        {
          "internalType": "uint256",
          "name": "",
          "type": "uint256"
        }
      ],
      "payable": false,
      "stateMutability": "view",
      "type": "function"
    },
    {
      "constant": true,
      "inputs": [],
      "name": "descriptionItem",
      "outputs": [
        {
          "internalType": "string",
          "name": "",
          "type": "string"
        }
      ],
      "payable": false,
      "stateMutability": "view",
      "type": "function"
    },
    {
      "constant": true,
      "inputs": [],
      "name": "duration",
      "outputs": [
        {
          "internalType": "uint256",
          "name": "",
          "type": "uint256"
        }
      ],
      "payable": false,
      "stateMutability": "view",
      "type": "function"
    },
    {
      "constant": true,
      "inputs": [],
      "name": "owner",
      "outputs": [
        {
          "internalType": "address payable",
          "name": "",
          "type": "address"
        }
      ],
      "payable": false,
      "stateMutability": "view",
      "type": "function"
    },
    {
      "constant": true,
      "inputs": [],
      "name": "startingBid",
      "outputs": [
        {
          "internalType": "uint256",
          "name": "",
          "type": "uint256"
        }
      ],
      "payable": false,
      "stateMutability": "view",
      "type": "function"
    },
    {
      "constant": true,
      "inputs": [],
      "name": "withdrawalTime",
      "outputs": [
        {
          "internalType": "uint256",
          "name": "",
          "type": "uint256"
        }
      ],
      "payable": false,
      "stateMutability": "view",
      "type": "function"
    },
    {
      "constant": false,
      "inputs": [
        {
          "internalType": "address payable",
          "name": "newOwner",
          "type": "address"
        }
      ],
      "name": "transferOwnership",
      "outputs": [],
      "payable": true,
      "stateMutability": "payable",
      "type": "function"
    },
    {
      "constant": false,
      "inputs": [
        {
          "internalType": "bytes32",
          "name": "_name",
          "type": "bytes32"
        }
      ],
      "name": "placeBid",
      "outputs": [],
      "payable": true,
      "stateMutability": "payable",
      "type": "function"
    },
    {
      "constant": false,
      "inputs": [],
      "name": "claimBidAmount",
      "outputs": [],
      "payable": true,
      "stateMutability": "payable",
      "type": "function"
    },
    {
      "constant": false,
      "inputs": [],
      "name": "bidEnd",
      "outputs": [],
      "payable": false,
      "stateMutability": "nonpayable",
      "type": "function"
    },
    {
      "constant": false,
      "inputs": [],
      "name": "destructContract",
      "outputs": [],
      "payable": false,
      "stateMutability": "nonpayable",
      "type": "function"
    },
    {
      "constant": true,
      "inputs": [],
      "name": "getBalanceContract",
      "outputs": [
        {
          "internalType": "uint256",
          "name": "",
          "type": "uint256"
        }
      ],
      "payable": false,
      "stateMutability": "view",
      "type": "function"
    }
  ],
  "bytecode": "0x608060405260786005553480156200001657600080fd5b506040516200141738038062001417833981810160405260608110156200003c57600080fd5b81019080805160405193929190846401000000008211156200005d57600080fd5b838201915060208201858111156200007457600080fd5b82518660018202830111640100000000821117156200009257600080fd5b8083526020830192505050908051906020019080838360005b83811015620000c8578082015181840152602081019050620000ab565b50505050905090810190601f168015620000f65780820380516001836020036101000a031916815260200191505b506040526020018051906020019092919080519060200190929190505050336000806101000a81548173ffffffffffffffffffffffffffffffffffffffff021916908373ffffffffffffffffffffffffffffffffffffffff16021790555082600190805190602001906200016c929190620001b9565b508160028190555080600381905550806006819055508142016004819055506000600a60006101000a81548160ff02191690836001811115620001ab57fe5b021790555050505062000268565b828054600181600116156101000203166002900490600052602060002090601f016020900481019282601f10620001fc57805160ff19168380011785556200022d565b828001600101855582156200022d579182015b828111156200022c5782518255916020019190600101906200020f565b5b5090506200023c919062000240565b5090565b6200026591905b808211156200026157600081600090555060010162000247565b5090565b90565b61119f80620002786000396000f3fe6080604052600436106100dd5760003560e01c80637fb450991161007f5780639646893411610059578063964689341461030a578063b9fdd56914610314578063f2fde38b1461033f578063fd91835f14610383576100dd565b80637fb45099146102635780638da5cb5b1461029c5780639499e018146102f3576100dd565b8063389eb9f9116100bb578063389eb9f91461014f578063497ecfc51461017a57806366bd78fd146101a85780636bf56b38146101d3576100dd565b80630fb5a6b4146100e257806329dcb0cf1461010d5780632cf8d12714610138575b600080fd5b3480156100ee57600080fd5b506100f76103da565b6040518082815260200191505060405180910390f35b34801561011957600080fd5b506101226103e0565b6040518082815260200191505060405180910390f35b34801561014457600080fd5b5061014d6103e6565b005b34801561015b57600080fd5b506101646106d9565b6040518082815260200191505060405180910390f35b6101a66004803603602081101561019057600080fd5b81019080803590602001909291905050506106df565b005b3480156101b457600080fd5b506101bd610a3f565b6040518082815260200191505060405180910390f35b3480156101df57600080fd5b506101e8610a47565b6040518080602001828103825283818151815260200191508051906020019080838360005b8381101561022857808201518184015260208101905061020d565b50505050905090810190601f1680156102555780820380516001836020036101000a031916815260200191505b509250505060405180910390f35b34801561026f57600080fd5b50610278610ae5565b6040518082600181111561028857fe5b60ff16815260200191505060405180910390f35b3480156102a857600080fd5b506102b1610af8565b604051808273ffffffffffffffffffffffffffffffffffffffff1673ffffffffffffffffffffffffffffffffffffffff16815260200191505060405180910390f35b3480156102ff57600080fd5b50610308610b1d565b005b610312610d4f565b005b34801561032057600080fd5b50610329610f87565b6040518082815260200191505060405180910390f35b6103816004803603602081101561035557600080fd5b81019080803573ffffffffffffffffffffffffffffffffffffffff169060200190929190505050610f8d565b005b34801561038f57600080fd5b50610398611092565b604051808273ffffffffffffffffffffffffffffffffffffffff1673ffffffffffffffffffffffffffffffffffffffff16815260200191505060405180910390f35b60025481565b60045481565b6000809054906101000a900473ffffffffffffffffffffffffffffffffffffffff1673ffffffffffffffffffffffffffffffffffffffff163373ffffffffffffffffffffffffffffffffffffffff16146104a8576040517f08c379a000000000000000000000000000000000000000000000000000000000815260040180806020018281038252601a8152602001807f6f6e6c7920746865206f776e65722063616e20646f206974202100000000000081525060200191505060405180910390fd5b600060018111156104b557fe5b600a60009054906101000a900460ff1660018111156104d057fe5b14610543576040517f08c379a000000000000000000000000000000000000000000000000000000000815260040180806020018281038252601d8152602001807f61756374696f6e5374617465206973206e6f742072756e6e696e67202100000081525060200191505060405180910390fd5b60045442101561059e576040517f08c379a00000000000000000000000000000000000000000000000000000000081526004018080602001828103825260248152602001806110ec6024913960400191505060405180910390fd5b3373ffffffffffffffffffffffffffffffffffffffff166108fc60096000600760009054906101000a900473ffffffffffffffffffffffffffffffffffffffff1673ffffffffffffffffffffffffffffffffffffffff1673ffffffffffffffffffffffffffffffffffffffff168152602001908152602001600020600101549081150290604051600060405180830381858888f19350505050158015610648573d6000803e3d6000fd5b50600060096000600760009054906101000a900473ffffffffffffffffffffffffffffffffffffffff1673ffffffffffffffffffffffffffffffffffffffff1673ffffffffffffffffffffffffffffffffffffffff168152602001908152602001600020600101819055506001600a60006101000a81548160ff021916908360018111156106d257fe5b0217905550565b60055481565b6004544210610756576040517f08c379a00000000000000000000000000000000000000000000000000000000081526004018080602001828103825260208152602001807f626c6f636b2e74696d657374616d70206973203e3d20646561646c696e65202181525060200191505060405180910390fd5b61075e6110b8565b34111561098f573460068190555033600760006101000a81548173ffffffffffffffffffffffffffffffffffffffff021916908373ffffffffffffffffffffffffffffffffffffffff160217905550806008819055506000600960003373ffffffffffffffffffffffffffffffffffffffff1673ffffffffffffffffffffffffffffffffffffffff168152602001908152602001600020600101541115610889573373ffffffffffffffffffffffffffffffffffffffff166108fc600960003373ffffffffffffffffffffffffffffffffffffffff1673ffffffffffffffffffffffffffffffffffffffff168152602001908152602001600020600101549081150290604051600060405180830381858888f19350505050158015610887573d6000803e3d6000fd5b505b34600960003373ffffffffffffffffffffffffffffffffffffffff1673ffffffffffffffffffffffffffffffffffffffff1681526020019081526020016000206001018190555080600960003373ffffffffffffffffffffffffffffffffffffffff1673ffffffffffffffffffffffffffffffffffffffff168152602001908152602001600020600001819055507f24d328ae9657570bc1fa01d56e08201f59ee3c2d500e7151b7ee7400826008a5338234604051808473ffffffffffffffffffffffffffffffffffffffff1673ffffffffffffffffffffffffffffffffffffffff168152602001838152602001828152602001935050505060405180910390a1610a3c565b7fdf7c677983a111e6c7fb07c3d90d76eed8dcff401c55d29c591333029bff296c8134604051808381526020018281526020019250505060405180910390a16040517f08c379a00000000000000000000000000000000000000000000000000000000081526004018080602001828103825260178152602001807f796f75206469646e27742062696420656e6f756768202100000000000000000081525060200191505060405180910390fd5b50565b600047905090565b60018054600181600116156101000203166002900480601f016020809104026020016040519081016040528092919081815260200182805460018160011615610100020316600290048015610add5780601f10610ab257610100808354040283529160200191610add565b820191906000526020600020905b815481529060010190602001808311610ac057829003601f168201915b505050505081565b600a60009054906101000a900460ff1681565b6000809054906101000a900473ffffffffffffffffffffffffffffffffffffffff1681565b6000809054906101000a900473ffffffffffffffffffffffffffffffffffffffff1673ffffffffffffffffffffffffffffffffffffffff163373ffffffffffffffffffffffffffffffffffffffff1614610bdf576040517f08c379a000000000000000000000000000000000000000000000000000000000815260040180806020018281038252601a8152602001807f6f6e6c7920746865206f776e65722063616e20646f206974202100000000000081525060200191505060405180910390fd5b600454421015610c3a576040517f08c379a00000000000000000000000000000000000000000000000000000000081526004018080602001828103825260248152602001806110ec6024913960400191505060405180910390fd5b600180811115610c4657fe5b600a60009054906101000a900460ff166001811115610c6157fe5b14610cb7576040517f08c379a00000000000000000000000000000000000000000000000000000000081526004018080602001828103825260298152602001806111106029913960400191505060405180910390fd5b600554600454014211610d15576040517f08c379a00000000000000000000000000000000000000000000000000000000081526004018080602001828103825260328152602001806111396032913960400191505060405180910390fd5b6000809054906101000a900473ffffffffffffffffffffffffffffffffffffffff1673ffffffffffffffffffffffffffffffffffffffff16ff5b600760009054906101000a900473ffffffffffffffffffffffffffffffffffffffff1673ffffffffffffffffffffffffffffffffffffffff163373ffffffffffffffffffffffffffffffffffffffff161415610df6576040517f08c379a00000000000000000000000000000000000000000000000000000000081526004018080602001828103825260298152602001806110c36029913960400191505060405180910390fd5b6000600960003373ffffffffffffffffffffffffffffffffffffffff1673ffffffffffffffffffffffffffffffffffffffff1681526020019081526020016000206001015411610eae576040517f08c379a00000000000000000000000000000000000000000000000000000000081526004018080602001828103825260178152602001807f796f7520646f6e74206861766520616d7420626964202100000000000000000081525060200191505060405180910390fd5b60003390508073ffffffffffffffffffffffffffffffffffffffff166108fc600960008473ffffffffffffffffffffffffffffffffffffffff1673ffffffffffffffffffffffffffffffffffffffff168152602001908152602001600020600101549081150290604051600060405180830381858888f19350505050158015610f3b573d6000803e3d6000fd5b506000600960008373ffffffffffffffffffffffffffffffffffffffff1673ffffffffffffffffffffffffffffffffffffffff1681526020019081526020016000206001018190555050565b60035481565b6000809054906101000a900473ffffffffffffffffffffffffffffffffffffffff1673ffffffffffffffffffffffffffffffffffffffff163373ffffffffffffffffffffffffffffffffffffffff161461104f576040517f08c379a000000000000000000000000000000000000000000000000000000000815260040180806020018281038252601a8152602001807f6f6e6c7920746865206f776e65722063616e20646f206974202100000000000081525060200191505060405180910390fd5b806000806101000a81548173ffffffffffffffffffffffffffffffffffffffff021916908373ffffffffffffffffffffffffffffffffffffffff16021790555050565b600760009054906101000a900473ffffffffffffffffffffffffffffffffffffffff1681565b600060065490509056fe74686520686967686573744269646465722063616e6e6f7420636c61696d426964416d6f756e742021626c6f636b2e74696d657374616d70206973204e4f54203e3d20646561646c696e65202161756374696f6e5374617465206973206e6f7420656e64656420212063616c6c20426964456e64282974696d657374616d7020686173206e6f7420706173742074686520646561646c696e652b7769746864726177616c54696d65a265627a7a72315820af14418d7968dcbaebe28adefcdaba19118fa2bd9aab6cde07ff5da80da629a664736f6c63430005100032",
  "source": "pragma solidity ^0.5.16;\n\ncontract BidingContract {\n    //bytes32 public nameItem;\n    // contract can be destructed by the owner if the bid is ended AND XX seconds after the deadline (!= end which result to the call of the function)\n    address payable public owner;\n    string public descriptionItem;\n    uint public duration; // seconds\n    uint public startingBid;\n    uint public deadline; // timestamp\n    uint public withdrawalTime = 120; //at least 120 seconds after the deadline to withdraw your money, or owner get all\n    \n    uint highestBid;\n    address public addrHighestBidder;\n    bytes32 nameHighestBidder; // caution, I decided the ADDRESS is the ID, name is a joke...\n    \n    struct Bidder {\n        bytes32 nameBidder;\n        uint amtBid;\n    }\n    \n    mapping(address => Bidder) private biddersMap;\n    \n    enum State{Running, Ended}\n    State public auctionState;\n    \n    event HighBidChanged(address _addr, bytes32 _nm, uint _newHighBid);\n    event BidFailed(bytes32 _nameBidder, uint _amt);\n    \n    // constructor(bytes32 _nameItem, string memory _descriptionItem, uint _duration, uint _startingBid) public {\n    constructor(string memory _descriptionItem, uint _duration, uint _startingBid) public {\n        //nameItem = _nameItem;\n        owner = msg.sender;\n        descriptionItem = _descriptionItem;\n        duration = _duration;\n        startingBid = _startingBid;\n        highestBid = _startingBid;\n        \n        deadline = block.timestamp + _duration;\n        auctionState = State.Running;\n    }\n    \n    modifier onlyOwner() {\n        require(msg.sender == owner, \"only the owner can do it !\");\n        _;\n    }\n    \n    modifier beforeEnd(){\n        require(block.timestamp < deadline, \"block.timestamp is >= deadline !\");\n        _;\n    }\n    \n    modifier afterEnd(){\n        require(block.timestamp >= deadline, \"block.timestamp is NOT >= deadline !\");\n        _;\n    }\n    \n    modifier runningState(){\n        require(auctionState == State.Running, \"auctionState is not running !\");\n        _;\n    }\n    \n    modifier endedState(){\n        require(auctionState == State.Ended, \"auctionState is not ended ! call BidEnd()\");\n        _;\n    }\n    \n    function transferOwnership(address payable newOwner) payable public onlyOwner {\n        owner = newOwner;\n    }\n    \n    // Anyone can send ethers to bid\n    function placeBid(bytes32 _name) public payable beforeEnd {\n        \n        if (msg.value > getHighBid()){\n            highestBid = msg.value;\n            addrHighestBidder = msg.sender;\n            nameHighestBidder = _name;\n            \n            if (biddersMap[msg.sender].amtBid > 0){\n                msg.sender.transfer(biddersMap[msg.sender].amtBid);\n            }\n            \n            biddersMap[msg.sender].amtBid = msg.value;\n            biddersMap[msg.sender].nameBidder = _name;\n            \n            emit HighBidChanged(msg.sender, _name, msg.value);\n        }\n        else {\n            emit BidFailed(_name, msg.value);\n            revert(\"you didn't bid enough !\");\n        }\n        \n    }\n    \n    // will return the current \"High Bid\"...in the start it will be equal to startBid\n    function getHighBid() private view returns(uint){\n        return highestBid;\n    }\n    \n    // call by a bidder to get back his amount if he is not the winner\n    // If a higher bid is received - the loser can claim their ether by calling the claimBidAmount() . \n    // This would check the if the caller is eligible for the ethers...\n    // if it is then it would send the ethers to the caller otherwise throws an exception\n    function claimBidAmount() public payable {\n        require(msg.sender != addrHighestBidder, \"the highestBidder cannot claimBidAmount !\");\n        require(biddersMap[msg.sender].amtBid > 0, \"you dont have amt bid !\");\n        /*address payable recipient;*/\n        address payable recipient = msg.sender;\n        recipient.transfer(biddersMap[recipient].amtBid);\n        biddersMap[recipient].amtBid = 0;\n    }\n    \n    // Owner call it to finish the auction bidding, he gets the highest bid in the same time. \n    function bidEnd() public onlyOwner runningState afterEnd {\n        msg.sender.transfer(biddersMap[addrHighestBidder].amtBid);\n        biddersMap[addrHighestBidder].amtBid = 0; // Avoid double gains ! not necessary with auctionState : double security\n        auctionState = State.Ended;\n    }\n    \n    // After some time, the owner destroy the contract, and get all money if participant didn t claimed it before\n    function destructContract() public onlyOwner afterEnd endedState{\n        require(block.timestamp > deadline + withdrawalTime, \"timestamp has not past the deadline+withdrawalTime\");\n        selfdestruct(owner);\n    }\n    \n    function getBalanceContract() public view returns(uint){ // balance in wei\n        return address(this).balance;\n    }\n}",
  "sourcePath": "/Users/olivier/Documents/code/olivier7delf/Blockchain-Course-Patterns/contracts/BidingContract.sol",
  "compiler": {
    "name": "solc",
    "version": "0.5.16+commit.9c3226ce.Emscripten.clang"
  },
  "schemaVersion": "3.4.3",
  "updatedAt": "2021-11-05T22:20:51.129Z",
  "networkType": "ethereum",
  "devdoc": {
    "methods": {}
  },
  "userdoc": {
    "methods": {}
  }
}