{
  "contractName": "ChildContract",
  "abi": [
    {
      "inputs": [
        {
          "internalType": "uint8",
          "name": "id",
          "type": "uint8"
        },
        {
          "internalType": "address",
          "name": "own",
          "type": "address"
        },
        {
          "internalType": "bytes32",
          "name": "nm",
          "type": "bytes32"
        }
      ],
      "payable": false,
      "stateMutability": "nonpayable",
      "type": "constructor"
    },
    {
      "anonymous": false,
      "inputs": [
        {
          "indexed": false,
          "internalType": "uint8",
          "name": "identity",
          "type": "uint8"
        },
        {
          "indexed": false,
          "internalType": "bytes32",
          "name": "from",
          "type": "bytes32"
        },
        {
          "indexed": false,
          "internalType": "bytes32",
          "name": "to",
          "type": "bytes32"
        }
      ],
      "name": "ChildOwnerTransfered",
      "type": "event"
    },
    {
      "constant": true,
      "inputs": [],
      "name": "identity",
      "outputs": [
        {
          "internalType": "uint8",
          "name": "",
          "type": "uint8"
        }
      ],
      "payable": false,
      "stateMutability": "view",
      "type": "function"
    },
    {
      "constant": true,
      "inputs": [],
      "name": "name",
      "outputs": [
        {
          "internalType": "bytes32",
          "name": "",
          "type": "bytes32"
        }
      ],
      "payable": false,
      "stateMutability": "view",
      "type": "function"
    },
    {
      "constant": true,
      "inputs": [],
      "name": "owner",
      "outputs": [
        {
          "internalType": "address",
          "name": "",
          "type": "address"
        }
      ],
      "payable": false,
      "stateMutability": "view",
      "type": "function"
    },
    {
      "constant": true,
      "inputs": [],
      "name": "useless_name",
      "outputs": [
        {
          "internalType": "bytes4",
          "name": "",
          "type": "bytes4"
        }
      ],
      "payable": false,
      "stateMutability": "view",
      "type": "function"
    },
    {
      "constant": false,
      "inputs": [
        {
          "internalType": "address",
          "name": "newOwner",
          "type": "address"
        },
        {
          "internalType": "bytes32",
          "name": "nm",
          "type": "bytes32"
        }
      ],
      "name": "transferOwnership",
      "outputs": [],
      "payable": false,
      "stateMutability": "nonpayable",
      "type": "function"
    },
    {
      "constant": true,
      "inputs": [
        {
          "internalType": "address",
          "name": "addr",
          "type": "address"
        }
      ],
      "name": "isOwner",
      "outputs": [
        {
          "internalType": "bool",
          "name": "",
          "type": "bool"
        }
      ],
      "payable": false,
      "stateMutability": "view",
      "type": "function"
    },
    {
      "constant": false,
      "inputs": [
        {
          "internalType": "bytes4",
          "name": "nm",
          "type": "bytes4"
        }
      ],
      "name": "joke",
      "outputs": [],
      "payable": false,
      "stateMutability": "nonpayable",
      "type": "function"
    }
  ],
  "bytecode": "0x60806040527f3078303100000000000000000000000000000000000000000000000000000000600260006101000a81548163ffffffff021916908360e01c021790555034801561004e57600080fd5b506040516105763803806105768339818101604052606081101561007157600080fd5b81019080805190602001909291908051906020019092919080519060200190929190505050826000806101000a81548160ff021916908360ff16021790555081600060016101000a81548173ffffffffffffffffffffffffffffffffffffffff021916908373ffffffffffffffffffffffffffffffffffffffff1602179055508060018190555050505061046c8061010a6000396000f3fe608060405234801561001057600080fd5b506004361061007d5760003560e01c806389e6b5fb1161005b57806389e6b5fb146101205780638da5cb5b1461016e578063bb508518146101b8578063e1249215146102055761007d565b806306fdde03146100825780632c159a1a146100a05780632f54bf6e146100c4575b600080fd5b61008a610261565b6040518082815260200191505060405180910390f35b6100a8610267565b604051808260ff1660ff16815260200191505060405180910390f35b610106600480360360208110156100da57600080fd5b81019080803573ffffffffffffffffffffffffffffffffffffffff169060200190929190505050610279565b604051808215151515815260200191505060405180910390f35b61016c6004803603604081101561013657600080fd5b81019080803573ffffffffffffffffffffffffffffffffffffffff169060200190929190803590602001909291905050506102d2565b005b6101766103dd565b604051808273ffffffffffffffffffffffffffffffffffffffff1673ffffffffffffffffffffffffffffffffffffffff16815260200191505060405180910390f35b610203600480360360208110156101ce57600080fd5b8101908080357bffffffffffffffffffffffffffffffffffffffffffffffffffffffff19169060200190929190505050610403565b005b61020d610424565b60405180827bffffffffffffffffffffffffffffffffffffffffffffffffffffffff19167bffffffffffffffffffffffffffffffffffffffffffffffffffffffff1916815260200191505060405180910390f35b60015481565b6000809054906101000a900460ff1681565b60008060019054906101000a900473ffffffffffffffffffffffffffffffffffffffff1673ffffffffffffffffffffffffffffffffffffffff168273ffffffffffffffffffffffffffffffffffffffff16149050919050565b600060019054906101000a900473ffffffffffffffffffffffffffffffffffffffff1673ffffffffffffffffffffffffffffffffffffffff163373ffffffffffffffffffffffffffffffffffffffff161461032c57600080fd5b6000600154905082600060016101000a81548173ffffffffffffffffffffffffffffffffffffffff021916908373ffffffffffffffffffffffffffffffffffffffff160217905550816001819055507f5c621ab88898e6e9e72ba57f111357004c39d451619cf9004f8e0d90e1058cd66000809054906101000a900460ff1682600154604051808460ff1660ff168152602001838152602001828152602001935050505060405180910390a1505050565b600060019054906101000a900473ffffffffffffffffffffffffffffffffffffffff1681565b80600260006101000a81548163ffffffff021916908360e01c021790555050565b600260009054906101000a900460e01b8156fea265627a7a72315820600bc250e8bed330fc9352116ae12ab6158a53c3da411595ed128bf9274977de64736f6c63430005100032",
  "source": "pragma solidity ^0.5.16;\n\ncontract  ChildContract {\n    // Represents the identifier for some kind of asset\n\n    uint8     public  identity;\n    address   public  owner;\n    bytes32   public  name;\n    bytes4   public useless_name=\"0x01\";\n\n    modifier  OwnerOnly {if(msg.sender != owner)  revert(); else _;}\n    event     ChildOwnerTransfered(uint8 identity, bytes32 from, bytes32 to);\n\n    // Constructor\n    constructor(uint8 id, address own, bytes32 nm) public {\n      identity = id;\n      owner = own;\n      name = nm;\n    }\n\n    // transfer the ownership\n    function  transferOwnership (address newOwner, bytes32 nm) public OwnerOnly {\n        \n        bytes32  former = name; \n        owner = newOwner;\n        name = nm;\n        emit ChildOwnerTransfered(identity, former, name);\n    }\n    // checks if caller is the owner\n    function  isOwner(address addr) public view returns(bool) {\n        return (addr == owner);\n    }\n\n    // JOKE\n    function  joke (bytes4 nm) public {\n        useless_name = nm;\n    }\n}\n",
  "sourcePath": "/Users/olivier/Documents/code/olivier7delf/Blockchain-Course-Patterns/contracts/ChildContract.sol",
  "compiler": {
    "name": "solc",
    "version": "0.5.16+commit.9c3226ce.Emscripten.clang"
  },
  "schemaVersion": "3.4.3",
  "updatedAt": "2021-11-04T10:33:23.214Z",
  "devdoc": {
    "methods": {}
  },
  "userdoc": {
    "methods": {}
  }
}