{
  "contractName": "ContractFactory",
  "abi": [
    {
      "inputs": [
        {
          "internalType": "uint8",
          "name": "numParts",
          "type": "uint8"
        },
        {
          "internalType": "uint8",
          "name": "price",
          "type": "uint8"
        }
      ],
      "payable": false,
      "stateMutability": "nonpayable",
      "type": "constructor"
    },
    {
      "constant": true,
      "inputs": [
        {
          "internalType": "uint256",
          "name": "",
          "type": "uint256"
        }
      ],
      "name": "children",
      "outputs": [
        {
          "internalType": "contract ChildContract",
          "name": "",
          "type": "address"
        }
      ],
      "payable": false,
      "stateMutability": "view",
      "type": "function"
    },
    {
      "constant": true,
      "inputs": [],
      "name": "initialPrice",
      "outputs": [
        {
          "internalType": "uint8",
          "name": "",
          "type": "uint8"
        }
      ],
      "payable": false,
      "stateMutability": "view",
      "type": "function"
    },
    {
      "constant": false,
      "inputs": [
        {
          "internalType": "bytes32",
          "name": "name",
          "type": "bytes32"
        }
      ],
      "name": "purchase",
      "outputs": [],
      "payable": true,
      "stateMutability": "payable",
      "type": "function"
    },
    {
      "constant": true,
      "inputs": [
        {
          "internalType": "uint8",
          "name": "childIndex",
          "type": "uint8"
        }
      ],
      "name": "getInfo",
      "outputs": [
        {
          "internalType": "uint8",
          "name": "",
          "type": "uint8"
        },
        {
          "internalType": "address",
          "name": "",
          "type": "address"
        },
        {
          "internalType": "bytes32",
          "name": "",
          "type": "bytes32"
        }
      ],
      "payable": false,
      "stateMutability": "view",
      "type": "function"
    },
    {
      "constant": true,
      "inputs": [
        {
          "internalType": "uint8",
          "name": "childIndex",
          "type": "uint8"
        }
      ],
      "name": "getChildContractAddress",
      "outputs": [
        {
          "internalType": "address",
          "name": "",
          "type": "address"
        }
      ],
      "payable": false,
      "stateMutability": "view",
      "type": "function"
    },
    {
      "constant": true,
      "inputs": [
        {
          "internalType": "uint8",
          "name": "childIndex",
          "type": "uint8"
        }
      ],
      "name": "getOwnerName",
      "outputs": [
        {
          "internalType": "bytes32",
          "name": "",
          "type": "bytes32"
        }
      ],
      "payable": false,
      "stateMutability": "view",
      "type": "function"
    },
    {
      "constant": true,
      "inputs": [],
      "name": "getChildrenCount",
      "outputs": [
        {
          "internalType": "uint256",
          "name": "",
          "type": "uint256"
        }
      ],
      "payable": false,
      "stateMutability": "view",
      "type": "function"
    }
  ],
  "bytecode": "0x608060405234801561001057600080fd5b50604051610ff6380380610ff68339818101604052604081101561003357600080fd5b81019080805190602001909291908051906020019092919050505060008090505b8260ff168160ff16101561016a57600081306040516100729061018d565b808360ff1660ff1681526020018273ffffffffffffffffffffffffffffffffffffffff1673ffffffffffffffffffffffffffffffffffffffff168152602001807f2a2a2a000000000000000000000000000000000000000000000000000000000081525060200192505050604051809103906000f0801580156100f9573d6000803e3d6000fd5b5090806001815401808255809150509060018203906000526020600020016000909192909190916101000a81548173ffffffffffffffffffffffffffffffffffffffff021916908373ffffffffffffffffffffffffffffffffffffffff160217905550508080600101915050610054565b5080600160006101000a81548160ff021916908360ff160217905550505061019a565b61057680610a8083390190565b6108d7806101a96000396000f3fe6080604052600436106100705760003560e01c80635e6fc8b41161004e5780635e6fc8b4146101765780637002ce42146101a1578063cc4456111461021c578063e4d9de941461024a57610070565b80631d0806ae1461007557806329a81222146100a65780635a0089d3146100f8575b600080fd5b34801561008157600080fd5b5061008a6102dc565b604051808260ff1660ff16815260200191505060405180910390f35b3480156100b257600080fd5b506100e2600480360360208110156100c957600080fd5b81019080803560ff1690602001909291905050506102ef565b6040518082815260200191505060405180910390f35b34801561010457600080fd5b506101346004803603602081101561011b57600080fd5b81019080803560ff1690602001909291905050506103b8565b604051808273ffffffffffffffffffffffffffffffffffffffff1673ffffffffffffffffffffffffffffffffffffffff16815260200191505060405180910390f35b34801561018257600080fd5b5061018b6103fb565b6040518082815260200191505060405180910390f35b3480156101ad57600080fd5b506101da600480360360208110156101c457600080fd5b8101908080359060200190929190505050610407565b604051808273ffffffffffffffffffffffffffffffffffffffff1673ffffffffffffffffffffffffffffffffffffffff16815260200191505060405180910390f35b6102486004803603602081101561023257600080fd5b8101908080359060200190929190505050610443565b005b34801561025657600080fd5b506102866004803603602081101561026d57600080fd5b81019080803560ff169060200190929190505050610660565b604051808460ff1660ff1681526020018373ffffffffffffffffffffffffffffffffffffffff1673ffffffffffffffffffffffffffffffffffffffff168152602001828152602001935050505060405180910390f35b600160009054906101000a900460ff1681565b60008060008360ff168154811061030257fe5b9060005260206000200160009054906101000a900473ffffffffffffffffffffffffffffffffffffffff1673ffffffffffffffffffffffffffffffffffffffff166306fdde036040518163ffffffff1660e01b815260040160206040518083038186803b15801561037257600080fd5b505afa158015610386573d6000803e3d6000fd5b505050506040513d602081101561039c57600080fd5b8101908080519060200190929190505050905080915050919050565b6000808260ff16815481106103c957fe5b9060005260206000200160009054906101000a900473ffffffffffffffffffffffffffffffffffffffff169050919050565b60008080549050905090565b6000818154811061041457fe5b906000526020600020016000915054906101000a900473ffffffffffffffffffffffffffffffffffffffff1681565b600160009054906101000a900460ff1660ff1634101561046257600080fd5b60008090505b6000805490508160ff16101561065b5760008160ff168154811061048857fe5b9060005260206000200160009054906101000a900473ffffffffffffffffffffffffffffffffffffffff1673ffffffffffffffffffffffffffffffffffffffff16632f54bf6e306040518263ffffffff1660e01b8152600401808273ffffffffffffffffffffffffffffffffffffffff1673ffffffffffffffffffffffffffffffffffffffff16815260200191505060206040518083038186803b15801561052f57600080fd5b505afa158015610543573d6000803e3d6000fd5b505050506040513d602081101561055957600080fd5b81019080805190602001909291905050501561064e5760008160ff168154811061057f57fe5b9060005260206000200160009054906101000a900473ffffffffffffffffffffffffffffffffffffffff1673ffffffffffffffffffffffffffffffffffffffff166389e6b5fb33846040518363ffffffff1660e01b8152600401808373ffffffffffffffffffffffffffffffffffffffff1673ffffffffffffffffffffffffffffffffffffffff16815260200182815260200192505050600060405180830381600087803b15801561063057600080fd5b505af1158015610644573d6000803e3d6000fd5b505050505061065d565b8080600101915050610468565b505b50565b6000806000808460ff168154811061067457fe5b9060005260206000200160009054906101000a900473ffffffffffffffffffffffffffffffffffffffff1673ffffffffffffffffffffffffffffffffffffffff16632c159a1a6040518163ffffffff1660e01b815260040160206040518083038186803b1580156106e457600080fd5b505afa1580156106f8573d6000803e3d6000fd5b505050506040513d602081101561070e57600080fd5b810190808051906020019092919050505060008560ff168154811061072f57fe5b9060005260206000200160009054906101000a900473ffffffffffffffffffffffffffffffffffffffff1673ffffffffffffffffffffffffffffffffffffffff16638da5cb5b6040518163ffffffff1660e01b815260040160206040518083038186803b15801561079f57600080fd5b505afa1580156107b3573d6000803e3d6000fd5b505050506040513d60208110156107c957600080fd5b810190808051906020019092919050505060008660ff16815481106107ea57fe5b9060005260206000200160009054906101000a900473ffffffffffffffffffffffffffffffffffffffff1673ffffffffffffffffffffffffffffffffffffffff166306fdde036040518163ffffffff1660e01b815260040160206040518083038186803b15801561085a57600080fd5b505afa15801561086e573d6000803e3d6000fd5b505050506040513d602081101561088457600080fd5b8101908080519060200190929190505050925092509250919390925056fea265627a7a723158203cffa989c3da8eedeeff02118ce3a5479bdf5b904dde30ecdee7886c8731a3cc64736f6c6343000510003260806040527f3078303100000000000000000000000000000000000000000000000000000000600260006101000a81548163ffffffff021916908360e01c021790555034801561004e57600080fd5b506040516105763803806105768339818101604052606081101561007157600080fd5b81019080805190602001909291908051906020019092919080519060200190929190505050826000806101000a81548160ff021916908360ff16021790555081600060016101000a81548173ffffffffffffffffffffffffffffffffffffffff021916908373ffffffffffffffffffffffffffffffffffffffff1602179055508060018190555050505061046c8061010a6000396000f3fe608060405234801561001057600080fd5b506004361061007d5760003560e01c806389e6b5fb1161005b57806389e6b5fb146101205780638da5cb5b1461016e578063bb508518146101b8578063e1249215146102055761007d565b806306fdde03146100825780632c159a1a146100a05780632f54bf6e146100c4575b600080fd5b61008a610261565b6040518082815260200191505060405180910390f35b6100a8610267565b604051808260ff1660ff16815260200191505060405180910390f35b610106600480360360208110156100da57600080fd5b81019080803573ffffffffffffffffffffffffffffffffffffffff169060200190929190505050610279565b604051808215151515815260200191505060405180910390f35b61016c6004803603604081101561013657600080fd5b81019080803573ffffffffffffffffffffffffffffffffffffffff169060200190929190803590602001909291905050506102d2565b005b6101766103dd565b604051808273ffffffffffffffffffffffffffffffffffffffff1673ffffffffffffffffffffffffffffffffffffffff16815260200191505060405180910390f35b610203600480360360208110156101ce57600080fd5b8101908080357bffffffffffffffffffffffffffffffffffffffffffffffffffffffff19169060200190929190505050610403565b005b61020d610424565b60405180827bffffffffffffffffffffffffffffffffffffffffffffffffffffffff19167bffffffffffffffffffffffffffffffffffffffffffffffffffffffff1916815260200191505060405180910390f35b60015481565b6000809054906101000a900460ff1681565b60008060019054906101000a900473ffffffffffffffffffffffffffffffffffffffff1673ffffffffffffffffffffffffffffffffffffffff168273ffffffffffffffffffffffffffffffffffffffff16149050919050565b600060019054906101000a900473ffffffffffffffffffffffffffffffffffffffff1673ffffffffffffffffffffffffffffffffffffffff163373ffffffffffffffffffffffffffffffffffffffff161461032c57600080fd5b6000600154905082600060016101000a81548173ffffffffffffffffffffffffffffffffffffffff021916908373ffffffffffffffffffffffffffffffffffffffff160217905550816001819055507f5c621ab88898e6e9e72ba57f111357004c39d451619cf9004f8e0d90e1058cd66000809054906101000a900460ff1682600154604051808460ff1660ff168152602001838152602001828152602001935050505060405180910390a1505050565b600060019054906101000a900473ffffffffffffffffffffffffffffffffffffffff1681565b80600260006101000a81548163ffffffff021916908360e01c021790555050565b600260009054906101000a900460e01b8156fea265627a7a72315820600bc250e8bed330fc9352116ae12ab6158a53c3da411595ed128bf9274977de64736f6c63430005100032",
  "source": "pragma solidity ^0.5.16;\n\nimport \"./ChildContract.sol\";\n\n/**\n *  diff v4 and v4: this -> address(this) and not function \"constant\" but \"view\" instead (or \"pure\")\n * A Contract can create other contracts.\n * Represents an asset such as car, diamond, land-deed ....\n **/\n\n\n/**\n * This contract creates multiple child contracts.\n **/\ncontract ContractFactory {\n    // Maintains all the child contracts\n    ChildContract[] public children;\n    // Price of the asset\n    uint8    public   initialPrice;\n\n    // Constructor\n    // Creates the child contracts\n    constructor(uint8  numParts, uint8   price) public {\n        for(uint8 i = 0; i < numParts; i++){\n            // address payable this_add = payable(address(this));\n            children.push(new ChildContract(i, address(this), \"***\"));\n        }\n        initialPrice = price;\n    }\n\n    // Anyone can pay the price and purchase the asset\n\n    function  purchase(bytes32 name) payable public {\n\n        if(msg.value < initialPrice) revert();\n\n        // Look for available asset i.e., one that is not sold yet\n        for(uint8 i = 0; i < children.length; i++){\n            // Check if contract factoy is the owner\n            if(children[i].isOwner(address(this))){\n                children[i].transferOwnership(msg.sender, name);\n                return;\n            }\n        }\n        // No more assets available - so throw an exception\n        //revert();\n    }\n\n\n\n    // Returns the information about the child contract at specified index\n    function  getInfo(uint8 childIndex) public view returns(uint8, address, bytes32){\n        // Simply return the values\n        return (children[childIndex].identity(),children[childIndex].owner(),children[childIndex].name());\n    }\n\n    // Returns the child contract address\n    function  getChildContractAddress(uint8 childIndex) public view returns (address){\n        return address(children[childIndex]);\n    }\n\n    // Returns name of the owner based on the child index\n    function  getOwnerName(uint8 childIndex) public view returns(bytes32){\n        bytes32  namer = children[childIndex].name();\n        return namer;\n    }\n    // Returns the count of the children\n    function  getChildrenCount() public view returns (uint){\n        return children.length;\n    }\n  \n}",
  "sourcePath": "/Users/olivier/Documents/code/olivier7delf/Blockchain-Course-Patterns/contracts/ContractFactory.sol",
  "compiler": {
    "name": "solc",
    "version": "0.5.16+commit.9c3226ce.Emscripten.clang"
  },
  "schemaVersion": "3.4.3",
  "updatedAt": "2021-11-05T22:20:51.120Z",
  "networkType": "ethereum",
  "devdoc": {
    "methods": {}
  },
  "userdoc": {
    "methods": {},
    "notice": "This contract creates multiple child contracts.*"
  }
}