{
  "contractName": "SelfDestruct",
  "abi": [
    {
      "inputs": [],
      "payable": false,
      "stateMutability": "nonpayable",
      "type": "constructor"
    },
    {
      "constant": true,
      "inputs": [],
      "name": "someValue",
      "outputs": [
        {
          "internalType": "string",
          "name": "",
          "type": "string"
        }
      ],
      "payable": false,
      "stateMutability": "view",
      "type": "function"
    },
    {
      "constant": false,
      "inputs": [
        {
          "internalType": "string",
          "name": "value",
          "type": "string"
        }
      ],
      "name": "setValue",
      "outputs": [],
      "payable": false,
      "stateMutability": "nonpayable",
      "type": "function"
    },
    {
      "constant": false,
      "inputs": [],
      "name": "killContract",
      "outputs": [],
      "payable": false,
      "stateMutability": "nonpayable",
      "type": "function"
    }
  ],
  "bytecode": "0x60806040526040518060400160405280600b81526020017f4e4f542d5345542d5945540000000000000000000000000000000000000000008152506001908051906020019061004f9291906100a2565b5034801561005c57600080fd5b50336000806101000a81548173ffffffffffffffffffffffffffffffffffffffff021916908373ffffffffffffffffffffffffffffffffffffffff160217905550610147565b828054600181600116156101000203166002900490600052602060002090601f016020900481019282601f106100e357805160ff1916838001178555610111565b82800160010185558215610111579182015b828111156101105782518255916020019190600101906100f5565b5b50905061011e9190610122565b5090565b61014491905b80821115610140576000816000905550600101610128565b5090565b90565b6103b3806101566000396000f3fe608060405234801561001057600080fd5b50600436106100415760003560e01c80631c02708d146100465780634a627e611461005057806393a09352146100d3575b600080fd5b61004e61018e565b005b610058610221565b6040518080602001828103825283818151815260200191508051906020019080838360005b8381101561009857808201518184015260208101905061007d565b50505050905090810190601f1680156100c55780820380516001836020036101000a031916815260200191505b509250505060405180910390f35b61018c600480360360208110156100e957600080fd5b810190808035906020019064010000000081111561010657600080fd5b82018360208201111561011857600080fd5b8035906020019184600183028401116401000000008311171561013a57600080fd5b91908080601f016020809104026020016040519081016040528093929190818152602001838380828437600081840152601f19601f8201169050808301925050505050505091929192905050506102bf565b005b6000809054906101000a900473ffffffffffffffffffffffffffffffffffffffff1673ffffffffffffffffffffffffffffffffffffffff163373ffffffffffffffffffffffffffffffffffffffff16146101e757600080fd5b6000809054906101000a900473ffffffffffffffffffffffffffffffffffffffff1673ffffffffffffffffffffffffffffffffffffffff16ff5b60018054600181600116156101000203166002900480601f0160208091040260200160405190810160405280929190818152602001828054600181600116156101000203166002900480156102b75780601f1061028c576101008083540402835291602001916102b7565b820191906000526020600020905b81548152906001019060200180831161029a57829003601f168201915b505050505081565b80600190805190602001906102d59291906102d9565b5050565b828054600181600116156101000203166002900490600052602060002090601f016020900481019282601f1061031a57805160ff1916838001178555610348565b82800160010185558215610348579182015b8281111561034757825182559160200191906001019061032c565b5b5090506103559190610359565b5090565b61037b91905b8082111561037757600081600090555060010161035f565b5090565b9056fea265627a7a7231582076a4a5d537cee82b660d66353dbabcd60941a6a1a34241c643087a2414521d9564736f6c63430005100032",
  "source": "pragma solidity ^0.5.16;\r\n\r\ncontract SelfDestruct {\r\n\r\n    address payable        owner;\r\n    string  public  someValue = \"NOT-SET-YET\";\r\n\r\n    modifier  OwnerOnly {\r\n        if(msg.sender != owner){\r\n            revert();\r\n        } else {\r\n            _;\r\n        }\r\n    }\r\n\r\n    // Constructor\r\n    constructor() public {\r\n        owner = msg.sender;\r\n    }\r\n\r\n    // Sets the storage variable\r\n    function  setValue(string memory value) public {\r\n        someValue = value;\r\n    }\r\n\r\n    // This is where the contract is destroyed\r\n    function  killContract() public OwnerOnly {\r\n        // suicide(owner);\r\n        // address  payable ownerB = payable owner;\r\n        selfdestruct(owner);\r\n    }\r\n\r\n}\r\n\r\n\r\n",
  "sourcePath": "/Users/olivier/Documents/code/olivier7delf/Blockchain-Course-Patterns/contracts/SelfDestruct.sol",
  "compiler": {
    "name": "solc",
    "version": "0.5.16+commit.9c3226ce.Emscripten.clang"
  },
  "schemaVersion": "3.4.3",
  "updatedAt": "2021-11-05T22:20:51.119Z",
  "networkType": "ethereum",
  "devdoc": {
    "methods": {}
  },
  "userdoc": {
    "methods": {}
  }
}