{
  "contractName": "UserAddressRegistry",
  "abi": [
    {
      "inputs": [],
      "payable": false,
      "stateMutability": "nonpayable",
      "type": "constructor"
    },
    {
      "constant": true,
      "inputs": [
        {
          "internalType": "address",
          "name": "",
          "type": "address"
        }
      ],
      "name": "addressMap",
      "outputs": [
        {
          "internalType": "bytes32",
          "name": "name",
          "type": "bytes32"
        },
        {
          "internalType": "uint256",
          "name": "lastUpdated",
          "type": "uint256"
        },
        {
          "internalType": "uint256",
          "name": "index",
          "type": "uint256"
        }
      ],
      "payable": false,
      "stateMutability": "view",
      "type": "function"
    },
    {
      "constant": true,
      "inputs": [
        {
          "internalType": "uint256",
          "name": "",
          "type": "uint256"
        }
      ],
      "name": "addresses",
      "outputs": [
        {
          "internalType": "address",
          "name": "",
          "type": "address"
        }
      ],
      "payable": false,
      "stateMutability": "view",
      "type": "function"
    },
    {
      "constant": false,
      "inputs": [
        {
          "internalType": "bytes32",
          "name": "name",
          "type": "bytes32"
        }
      ],
      "name": "registerName",
      "outputs": [
        {
          "internalType": "bool",
          "name": "",
          "type": "bool"
        }
      ],
      "payable": false,
      "stateMutability": "nonpayable",
      "type": "function"
    },
    {
      "constant": false,
      "inputs": [
        {
          "internalType": "address",
          "name": "given",
          "type": "address"
        },
        {
          "internalType": "bytes32",
          "name": "name",
          "type": "bytes32"
        }
      ],
      "name": "updateName",
      "outputs": [
        {
          "internalType": "bool",
          "name": "",
          "type": "bool"
        }
      ],
      "payable": false,
      "stateMutability": "nonpayable",
      "type": "function"
    },
    {
      "constant": false,
      "inputs": [
        {
          "internalType": "address",
          "name": "given",
          "type": "address"
        }
      ],
      "name": "deleteName",
      "outputs": [
        {
          "internalType": "bool",
          "name": "",
          "type": "bool"
        }
      ],
      "payable": false,
      "stateMutability": "nonpayable",
      "type": "function"
    },
    {
      "constant": true,
      "inputs": [],
      "name": "count",
      "outputs": [
        {
          "internalType": "uint256",
          "name": "",
          "type": "uint256"
        }
      ],
      "payable": false,
      "stateMutability": "view",
      "type": "function"
    },
    {
      "constant": true,
      "inputs": [
        {
          "internalType": "uint256",
          "name": "index",
          "type": "uint256"
        }
      ],
      "name": "getByIndex",
      "outputs": [
        {
          "internalType": "address",
          "name": "",
          "type": "address"
        },
        {
          "internalType": "bytes32",
          "name": "",
          "type": "bytes32"
        },
        {
          "internalType": "uint256",
          "name": "",
          "type": "uint256"
        },
        {
          "internalType": "uint256",
          "name": "",
          "type": "uint256"
        }
      ],
      "payable": false,
      "stateMutability": "view",
      "type": "function"
    },
    {
      "constant": true,
      "inputs": [
        {
          "internalType": "address",
          "name": "addr",
          "type": "address"
        }
      ],
      "name": "getByAddress",
      "outputs": [
        {
          "internalType": "address",
          "name": "",
          "type": "address"
        },
        {
          "internalType": "bytes32",
          "name": "",
          "type": "bytes32"
        },
        {
          "internalType": "uint256",
          "name": "",
          "type": "uint256"
        }
      ],
      "payable": false,
      "stateMutability": "view",
      "type": "function"
    }
  ],
  "bytecode": "0x608060405234801561001057600080fd5b50336000806101000a81548173ffffffffffffffffffffffffffffffffffffffff021916908373ffffffffffffffffffffffffffffffffffffffff160217905550610b46806100606000396000f3fe608060405234801561001057600080fd5b50600436106100885760003560e01c8063b162a3821161005b578063b162a3821461021c578063d6da080514610282578063da5633ef146102c8578063edf26d9b1461032e57610088565b806306661abd1461008d5780632d883a73146100ab5780632eba1c401461012e57806330257bf71461018a575b600080fd5b61009561039c565b6040518082815260200191505060405180910390f35b6100d7600480360360208110156100c157600080fd5b81019080803590602001909291905050506103a9565b604051808573ffffffffffffffffffffffffffffffffffffffff1673ffffffffffffffffffffffffffffffffffffffff16815260200184815260200183815260200182815260200194505050505060405180910390f35b6101706004803603602081101561014457600080fd5b81019080803573ffffffffffffffffffffffffffffffffffffffff16906020019092919050505061050f565b604051808215151515815260200191505060405180910390f35b6101cc600480360360208110156101a057600080fd5b81019080803573ffffffffffffffffffffffffffffffffffffffff1690602001909291905050506105dc565b604051808473ffffffffffffffffffffffffffffffffffffffff1673ffffffffffffffffffffffffffffffffffffffff168152602001838152602001828152602001935050505060405180910390f35b6102686004803603604081101561023257600080fd5b81019080803573ffffffffffffffffffffffffffffffffffffffff16906020019092919080359060200190929190505050610675565b604051808215151515815260200191505060405180910390f35b6102ae6004803603602081101561029857600080fd5b81019080803590602001909291905050506107c5565b604051808215151515815260200191505060405180910390f35b61030a600480360360208110156102de57600080fd5b81019080803573ffffffffffffffffffffffffffffffffffffffff169060200190929190505050610a26565b60405180848152602001838152602001828152602001935050505060405180910390f35b61035a6004803603602081101561034457600080fd5b8101908080359060200190929190505050610a50565b604051808273ffffffffffffffffffffffffffffffffffffffff1673ffffffffffffffffffffffffffffffffffffffff16815260200191505060405180910390f35b6000600280549050905090565b60008060008060028054905085106103f85760007f3078000000000000000000000000000000000000000000000000000000000000600060638393508191508090509350935093509350610508565b60006002868154811061040757fe5b9060005260206000200160009054906101000a900473ffffffffffffffffffffffffffffffffffffffff16905080600160008373ffffffffffffffffffffffffffffffffffffffff1673ffffffffffffffffffffffffffffffffffffffff16815260200190815260200160002060000154600160008473ffffffffffffffffffffffffffffffffffffffff1673ffffffffffffffffffffffffffffffffffffffff16815260200190815260200160002060010154600160008573ffffffffffffffffffffffffffffffffffffffff1673ffffffffffffffffffffffffffffffffffffffff168152602001908152602001600020600201549450945094509450505b9193509193565b60008060009054906101000a900473ffffffffffffffffffffffffffffffffffffffff1673ffffffffffffffffffffffffffffffffffffffff163373ffffffffffffffffffffffffffffffffffffffff1614156105d257600160008373ffffffffffffffffffffffffffffffffffffffff1673ffffffffffffffffffffffffffffffffffffffff1681526020019081526020016000206000808201600090556001820160009055600282016000905550506105c982610a8c565b600190506105d7565b600080fd5b919050565b600080600083600160008673ffffffffffffffffffffffffffffffffffffffff1673ffffffffffffffffffffffffffffffffffffffff16815260200190815260200160002060000154600160008773ffffffffffffffffffffffffffffffffffffffff1673ffffffffffffffffffffffffffffffffffffffff168152602001908152602001600020600101549250925092509193909250565b60008060009054906101000a900473ffffffffffffffffffffffffffffffffffffffff1673ffffffffffffffffffffffffffffffffffffffff163373ffffffffffffffffffffffffffffffffffffffff1614156107ba576000801b600160008573ffffffffffffffffffffffffffffffffffffffff1673ffffffffffffffffffffffffffffffffffffffff16815260200190815260200160002060000154141561072257600090506107b5565b81600160008573ffffffffffffffffffffffffffffffffffffffff1673ffffffffffffffffffffffffffffffffffffffff1681526020019081526020016000206000018190555042600160003373ffffffffffffffffffffffffffffffffffffffff1673ffffffffffffffffffffffffffffffffffffffff16815260200190815260200160002060010181905550600190505b6107bf565b600080fd5b92915050565b60008060001b82141561088b576107db33610a8c565b6000801b600160003373ffffffffffffffffffffffffffffffffffffffff1673ffffffffffffffffffffffffffffffffffffffff168152602001908152602001600020600001541461088257600160003373ffffffffffffffffffffffffffffffffffffffff1673ffffffffffffffffffffffffffffffffffffffff1681526020019081526020016000206000808201600090556001820160009055600282016000905550505b60009050610a21565b6000801b600160003373ffffffffffffffffffffffffffffffffffffffff1673ffffffffffffffffffffffffffffffffffffffff16815260200190815260200160002060000154141561093f5760023390806001815401808255809150509060018203906000526020600020016000909192909190916101000a81548173ffffffffffffffffffffffffffffffffffffffff021916908373ffffffffffffffffffffffffffffffffffffffff160217905550505b81600160003373ffffffffffffffffffffffffffffffffffffffff1673ffffffffffffffffffffffffffffffffffffffff1681526020019081526020016000206000018190555042600160003373ffffffffffffffffffffffffffffffffffffffff1673ffffffffffffffffffffffffffffffffffffffff16815260200190815260200160002060010181905550600160028054905003600160003373ffffffffffffffffffffffffffffffffffffffff1673ffffffffffffffffffffffffffffffffffffffff16815260200190815260200160002060020181905550600190505b919050565b60016020528060005260406000206000915090508060000154908060010154908060020154905083565b60028181548110610a5d57fe5b906000526020600020016000915054906101000a900473ffffffffffffffffffffffffffffffffffffffff1681565b6000600160008373ffffffffffffffffffffffffffffffffffffffff1673ffffffffffffffffffffffffffffffffffffffff16815260200190815260200160002060020154905060028181548110610ae057fe5b9060005260206000200160006101000a81549073ffffffffffffffffffffffffffffffffffffffff0219169055505056fea265627a7a72315820f8dc42e06dfd6c3ceead158bebcf1dd72543732a7167bb7c262e74a6aa454d2b64736f6c63430005100032",
  "source": "pragma solidity ^0.5.16;\n\n/**\n * Implements the registry for address => name mapping\n * This registry pattern contract is used by thedapps.com for personalizing the user experience\n * \n * Pattern: Mapping Iteration\n **/\n\ncontract UserAddressRegistry {\n\n    address   owner;\n\n    // =======\n    struct User {\n        bytes32   name;\n        uint      lastUpdated;\n        uint      index;\n    }\n\n    // Manages the mapping between address & name\n    mapping(address => User) public  addressMap;\n\n    // Manages the list of addresses\n    address[] public   addresses;\n\n    modifier OwnerOnly() {\n        if(msg.sender == owner) _;\n        else revert();\n    }\n\n    constructor() public {\n        owner = msg.sender;\n    }\n\n    // Registers the name\n    function registerName(bytes32 name) public returns (bool){\n        if(name == bytes32(0x0)){\n            // owner wants to delete the registration\n            removeFromAddresses(msg.sender);\n            \n            if(addressMap[msg.sender].name != bytes32(0x0)){\n                delete(addressMap[msg.sender]);\n            }\n            \n            return false;\n        }\n\n        if(addressMap[msg.sender].name == bytes32(0x0)){\n            addresses.push(msg.sender);\n        }\n        addressMap[msg.sender].name = name;\n        addressMap[msg.sender].lastUpdated = now;\n        addressMap[msg.sender].index = addresses.length-1;\n        return true;\n    }\n\n    // Only Owner can update the name \n    function updateName(address given, bytes32 name) public OwnerOnly  returns (bool){\n        if(addressMap[given].name == bytes32(0x0)) return false;\n        addressMap[given].name = name;\n        addressMap[msg.sender].lastUpdated = now;\n        return true;\n    }\n\n    // Owner can force delete\n    function deleteName(address given) public OwnerOnly returns (bool){\n        delete(addressMap[given]);\n        removeFromAddresses(given);\n        return true;\n    }\n\n    // Returns the count of registered names\n    function  count() public view returns (uint){\n        return addresses.length;\n    }\n  \n    // Returns the address-name at the specified index\n    function  getByIndex(uint index) public view returns (address, bytes32, uint, uint){\n        if(index >= addresses.length) return  (address(0x0), bytes32(\"0x\"), 0, 99);\n        address addr = addresses[index];\n        return (addr, addressMap[addr].name, addressMap[addr].lastUpdated, addressMap[addr].index);\n    }\n\n    // Returns the address-name by way of the address\n    function  getByAddress(address addr) public view returns (address,bytes32,uint){\n        return (addr, addressMap[addr].name, addressMap[addr].lastUpdated);\n    }\n\n    /**\n    * Solidity does not provide an out of the box function to remove the \n    * element of an array and shrink it.\n    **/\n    function removeFromAddresses(address addr) private {\n\n        uint index = addressMap[addr].index;\n        delete(addresses[index]);\n\n        // for(uint i = 0; i < addresses.length; i++) {\n        //     if(addr == addresses[i]){\n        //         // This simply zeroes out the element - length stays the same\n        //         //delete(addresses[i]);\n                \n        //         // This while loop will shrink size of the array\n        //         while (i < addresses.length - 1) {\n        //             addresses[i] = addresses[i+1];\n        //             i++;\n        //         }\n        //         addresses.length--;\n        //         return;\n        //     }\n        // }\n    }\n}",
  "sourcePath": "/Users/olivier/Documents/code/olivier7delf/Blockchain-Course-Patterns/contracts/UserAddressRegistry.sol",
  "compiler": {
    "name": "solc",
    "version": "0.5.16+commit.9c3226ce.Emscripten.clang"
  },
  "schemaVersion": "3.4.3",
  "updatedAt": "2021-11-05T22:20:51.126Z",
  "networkType": "ethereum",
  "devdoc": {
    "methods": {}
  },
  "userdoc": {
    "methods": {},
    "notice": "Implements the registry for address => name mapping This registry pattern contract is used by thedapps.com for personalizing the user experience  * Pattern: Mapping Iteration*"
  }
}