{
  "contractName": "WithdrawalContract",
  "abi": [
    {
      "constant": false,
      "inputs": [],
      "name": "pay",
      "outputs": [],
      "payable": true,
      "stateMutability": "payable",
      "type": "function"
    },
    {
      "constant": false,
      "inputs": [],
      "name": "withdraw",
      "outputs": [],
      "payable": false,
      "stateMutability": "nonpayable",
      "type": "function"
    },
    {
      "constant": true,
      "inputs": [],
      "name": "getBalance",
      "outputs": [
        {
          "internalType": "uint256",
          "name": "",
          "type": "uint256"
        }
      ],
      "payable": false,
      "stateMutability": "view",
      "type": "function"
    }
  ],
  "bytecode": "0x608060405234801561001057600080fd5b506102e5806100206000396000f3fe6080604052600436106100345760003560e01c806312065fe0146100395780631b9265b8146100645780633ccfd60b1461006e575b600080fd5b34801561004557600080fd5b5061004e610085565b6040518082815260200191505060405180910390f35b61006c6100a9565b005b34801561007a57600080fd5b50610083610165565b005b6000803090508073ffffffffffffffffffffffffffffffffffffffff163191505090565b60003414156100b757600080fd5b600060405180604001604052803373ffffffffffffffffffffffffffffffffffffffff168152602001348152509080600181540180825580915050906001820390600052602060002090600202016000909192909190915060008201518160000160006101000a81548173ffffffffffffffffffffffffffffffffffffffff021916908373ffffffffffffffffffffffffffffffffffffffff16021790555060208201518160010155505050565b60008090505b6000805490508110156102a8576000818154811061018557fe5b906000526020600020906002020160000160009054906101000a900473ffffffffffffffffffffffffffffffffffffffff1673ffffffffffffffffffffffffffffffffffffffff163373ffffffffffffffffffffffffffffffffffffffff16141561029b5760008082815481106101f857fe5b9060005260206000209060020201600101541161021457600080fd5b600080828154811061022257fe5b9060005260206000209060020201600101549050600080838154811061024457fe5b9060005260206000209060020201600101819055503373ffffffffffffffffffffffffffffffffffffffff166108fc829081150290604051600060405180830381858888f1935050505061029457fe5b50506102ae565b808060010191505061016b565b50600080fd5b56fea265627a7a7231582003fbe59a40e9ac6118e37fccb414d7509ecbc82de6da7914645d0316b3794fce64736f6c63430005100032",
  "source": "pragma solidity ^0.5.16;\n\ncontract WithdrawalContract {\n\n    struct Payer {\n        address payer;\n        uint    amount;\n    }\n\n    // Array of all payers\n    Payer[]  payers;\n\n    /**\n    * Pay to this function\n    * To make things easier - payer can pay only once, if tries more than once throw\n    **/\n    function  pay() public payable {\n      \n        if(msg.value == 0) revert();\n\n        payers.push(Payer(msg.sender, msg.value));\n    }\n\n    /**\n    * Withdraw using this function\n    **/\n    function  withdraw() public {\n        // Check if there is a balance for the caller\n        for(uint i = 0; i < payers.length; i++){\n            if(msg.sender == payers[i].payer){\n\n                require(payers[i].amount > 0);\n\n                uint amt = payers[i].amount;\n                \n                payers[i].amount = 0;\n\n                // revert() if sender returns a false\n                // otherwise the \n                assert(msg.sender.send(amt));\n\n                return;\n            }\n        }\n        // That means the address was not found in the list of payers\n        revert();\n    }\n\n    function  getBalance() public view returns (uint){\n        address thisContractsAddress = address(this);\n        return thisContractsAddress.balance;\n    }\n\n}\n",
  "sourcePath": "/Users/olivier/Documents/code/olivier7delf/Blockchain-Course-Patterns/contracts/WithdrawalContract.sol",
  "compiler": {
    "name": "solc",
    "version": "0.5.16+commit.9c3226ce.Emscripten.clang"
  },
  "schemaVersion": "3.4.3",
  "updatedAt": "2021-11-05T22:20:51.123Z",
  "networkType": "ethereum",
  "devdoc": {
    "methods": {}
  },
  "userdoc": {
    "methods": {
      "pay()": {
        "notice": "Pay to this function To make things easier - payer can pay only once, if tries more than once throw*"
      },
      "withdraw()": {
        "notice": "Withdraw using this function*"
      }
    }
  }
}